{
  "contractName": "SimplyMessage",
  "abi": [
    {
      "inputs": [
        {
          "name": "_message",
          "type": "string"
        }
      ],
      "payable": false,
      "stateMutability": "nonpayable",
      "type": "constructor"
    },
    {
      "constant": false,
      "inputs": [
        {
          "name": "_message",
          "type": "string"
        }
      ],
      "name": "changeMessage",
      "outputs": [
        {
          "name": "",
          "type": "bool"
        }
      ],
      "payable": false,
      "stateMutability": "nonpayable",
      "type": "function"
    },
    {
      "constant": true,
      "inputs": [],
      "name": "showMessage",
      "outputs": [
        {
          "name": "",
          "type": "string"
        }
      ],
      "payable": false,
      "stateMutability": "view",
      "type": "function"
    }
  ],
  "bytecode": "0x608060405234801561001057600080fd5b5060405161052338038061052383398101806040528101908080518201929190505050336000806101000a81548173ffffffffffffffffffffffffffffffffffffffff021916908373ffffffffffffffffffffffffffffffffffffffff16021790555080600160003373ffffffffffffffffffffffffffffffffffffffff1673ffffffffffffffffffffffffffffffffffffffff16815260200190815260200160002060000190805190602001906100c992919061012a565b5060018060003373ffffffffffffffffffffffffffffffffffffffff1673ffffffffffffffffffffffffffffffffffffffff16815260200190815260200160002060010160006101000a81548160ff021916908315150217905550506101cf565b828054600181600116156101000203166002900490600052602060002090601f016020900481019282601f1061016b57805160ff1916838001178555610199565b82800160010185558215610199579182015b8281111561019857825182559160200191906001019061017d565b5b5090506101a691906101aa565b5090565b6101cc91905b808211156101c85760008160009055506001016101b0565b5090565b90565b610345806101de6000396000f30060806040526004361061004c576000357c0100000000000000000000000000000000000000000000000000000000900463ffffffff16806360fd1c4f146100515780638125ceb2146100a4575b600080fd5b34801561005d57600080fd5b5061008a600480360381019080803590602001908201803590602001919091929391929390505050610134565b604051808215151515815260200191505060405180910390f35b3480156100b057600080fd5b506100b9610192565b6040518080602001828103825283818151815260200191508051906020019080838360005b838110156100f95780820151818401526020810190506100de565b50505050905090810190601f1680156101265780820380516001836020036101000a031916815260200191505b509250505060405180910390f35b60008282600160003373ffffffffffffffffffffffffffffffffffffffff1673ffffffffffffffffffffffffffffffffffffffff1681526020019081526020016000206000019190610187929190610274565b506001905092915050565b6060600160003373ffffffffffffffffffffffffffffffffffffffff1673ffffffffffffffffffffffffffffffffffffffff1681526020019081526020016000206000018054600181600116156101000203166002900480601f01602080910402602001604051908101604052809291908181526020018280546001816001161561010002031660029004801561026a5780601f1061023f5761010080835404028352916020019161026a565b820191906000526020600020905b81548152906001019060200180831161024d57829003601f168201915b5050505050905090565b828054600181600116156101000203166002900490600052602060002090601f016020900481019282601f106102b557803560ff19168380011785556102e3565b828001600101855582156102e3579182015b828111156102e25782358255916020019190600101906102c7565b5b5090506102f091906102f4565b5090565b61031691905b808211156103125760008160009055506001016102fa565b5090565b905600a165627a7a7230582055b965709ccf690567deed8427f3b3c569e11d006decf8235fd9bbcff983ecf80029",
  "source": "pragma solidity ^0.4.23;\n\ncontract SimplyMessage {\n\taddress owner;\n\tstruct myMessage{\n\t\tstring info;\n\t\tbool active;\n\t}\n\n\tmapping (address => myMessage) messages;\n\n\tconstructor(string _message) public {\n\t\towner = msg.sender;\n\t\tmessages[msg.sender].info = _message;\n\t\tmessages[msg.sender].active = true; \n\t}\n\n\tfunction changeMessage(string _message) external returns(bool){\n\t\tmessages[msg.sender].info =_message;\n\t\treturn true;\n\t}\n\n\tfunction showMessage() external view returns(string){\n\t\treturn messages[msg.sender].info;\n\t}\n}",
  "sourcePath": "/Users/kaoka/Repos/micro-dapp/contracts/SimplyMessage.sol",
  "compiler": {
    "name": "solc",
    "version": "0.4.24+commit.e67f0147.Emscripten.clang"
  },
  "schemaVersion": "2.0.1",
  "updatedAt": "2018-09-11T00:56:11.589Z"
}